{
  "contractName": "Wallet",
  "abi": [
    {
      "inputs": [
        {
          "internalType": "address[]",
          "name": "_approvers",
          "type": "address[]"
        },
        {
          "internalType": "uint256",
          "name": "_quorum",
          "type": "uint256"
        }
      ],
      "stateMutability": "nonpayable",
      "type": "constructor"
    },
    {
      "anonymous": false,
      "inputs": [
        {
          "indexed": true,
          "internalType": "address",
          "name": "_from",
          "type": "address"
        },
        {
          "indexed": true,
          "internalType": "address",
          "name": "_to",
          "type": "address"
        },
        {
          "indexed": false,
          "internalType": "uint256",
          "name": "_amount",
          "type": "uint256"
        }
      ],
      "name": "TransferCreated",
      "type": "event"
    },
    {
      "inputs": [
        {
          "internalType": "uint256",
          "name": "",
          "type": "uint256"
        }
      ],
      "name": "approvers",
      "outputs": [
        {
          "internalType": "address",
          "name": "",
          "type": "address"
        }
      ],
      "stateMutability": "view",
      "type": "function",
      "constant": true
    },
    {
      "inputs": [],
      "name": "quorum",
      "outputs": [
        {
          "internalType": "uint256",
          "name": "",
          "type": "uint256"
        }
      ],
      "stateMutability": "view",
      "type": "function",
      "constant": true
    },
    {
      "inputs": [
        {
          "internalType": "uint256",
          "name": "",
          "type": "uint256"
        }
      ],
      "name": "transfers",
      "outputs": [
        {
          "internalType": "uint256",
          "name": "amount",
          "type": "uint256"
        },
        {
          "internalType": "address payable",
          "name": "to",
          "type": "address"
        },
        {
          "internalType": "uint256",
          "name": "approvals",
          "type": "uint256"
        },
        {
          "internalType": "bool",
          "name": "sent",
          "type": "bool"
        }
      ],
      "stateMutability": "view",
      "type": "function",
      "constant": true
    },
    {
      "stateMutability": "payable",
      "type": "receive",
      "payable": true
    },
    {
      "inputs": [
        {
          "internalType": "uint256",
          "name": "_id",
          "type": "uint256"
        }
      ],
      "name": "getApprovals",
      "outputs": [
        {
          "internalType": "bool",
          "name": "",
          "type": "bool"
        }
      ],
      "stateMutability": "view",
      "type": "function",
      "constant": true
    },
    {
      "inputs": [],
      "name": "getApprovers",
      "outputs": [
        {
          "internalType": "address[]",
          "name": "",
          "type": "address[]"
        }
      ],
      "stateMutability": "view",
      "type": "function",
      "constant": true
    },
    {
      "inputs": [
        {
          "internalType": "address payable",
          "name": "_to",
          "type": "address"
        },
        {
          "internalType": "uint256",
          "name": "_amount",
          "type": "uint256"
        }
      ],
      "name": "createTransfers",
      "outputs": [],
      "stateMutability": "nonpayable",
      "type": "function"
    },
    {
      "inputs": [],
      "name": "getTransfers",
      "outputs": [
        {
          "components": [
            {
              "internalType": "uint256",
              "name": "amount",
              "type": "uint256"
            },
            {
              "internalType": "address payable",
              "name": "to",
              "type": "address"
            },
            {
              "internalType": "uint256",
              "name": "approvals",
              "type": "uint256"
            },
            {
              "internalType": "bool",
              "name": "sent",
              "type": "bool"
            }
          ],
          "internalType": "struct Wallet.Transfer[]",
          "name": "",
          "type": "tuple[]"
        }
      ],
      "stateMutability": "view",
      "type": "function",
      "constant": true
    },
    {
      "inputs": [
        {
          "internalType": "uint256",
          "name": "_index",
          "type": "uint256"
        }
      ],
      "name": "approveTransfer",
      "outputs": [],
      "stateMutability": "nonpayable",
      "type": "function"
    }
  ],
  "bytecode": "0x60806040523480156200001157600080fd5b5060405162001308380380620013088339818101604052620000379190810190620001ef565b81600090805190602001906200004f9291906200005f565b5080600181905550505062000312565b828054828255906000526020600020908101928215620000db579160200282015b82811115620000da5782518260006101000a81548173ffffffffffffffffffffffffffffffffffffffff021916908373ffffffffffffffffffffffffffffffffffffffff1602179055509160200191906001019062000080565b5b509050620000ea9190620000ee565b5090565b6200013191905b808211156200012d57600081816101000a81549073ffffffffffffffffffffffffffffffffffffffff021916905550600101620000f5565b5090565b90565b6000815190506200014581620002de565b92915050565b600082601f8301126200015d57600080fd5b8151620001746200016e8262000277565b62000249565b915081818352602084019350602081019050838560208402820111156200019a57600080fd5b60005b83811015620001ce5781620001b3888262000134565b8452602084019350602083019250506001810190506200019d565b5050505092915050565b600081519050620001e981620002f8565b92915050565b600080604083850312156200020357600080fd5b600083015167ffffffffffffffff8111156200021e57600080fd5b6200022c858286016200014b565b92505060206200023f85828601620001d8565b9150509250929050565b6000604051905081810181811067ffffffffffffffff821117156200026d57600080fd5b8060405250919050565b600067ffffffffffffffff8211156200028f57600080fd5b602082029050602081019050919050565b6000620002ad82620002b4565b9050919050565b600073ffffffffffffffffffffffffffffffffffffffff82169050919050565b6000819050919050565b620002e981620002a0565b8114620002f557600080fd5b50565b6200030381620002d4565b81146200030f57600080fd5b50565b610fe680620003226000396000f3fe60806040526004361061007f5760003560e01c80639377d7111161004e5780639377d71114610135578063a4e360c814610175578063cacca4a0146101b2578063d3650fb8146101db57610086565b80631703a0181461008b5780632f65142c146100b657806346f26619146100e15780636cb3e8ef1461010a57610086565b3661008657005b600080fd5b34801561009757600080fd5b506100a0610218565b6040516100ad9190610e45565b60405180910390f35b3480156100c257600080fd5b506100cb61021e565b6040516100d89190610da8565b60405180910390f35b3480156100ed57600080fd5b5061010860048036036101039190810190610a8d565b610302565b005b34801561011657600080fd5b5061011f61052c565b60405161012c9190610d86565b60405180910390f35b34801561014157600080fd5b5061015c60048036036101579190810190610ac9565b6105ba565b60405161016c9493929190610e60565b60405180910390f35b34801561018157600080fd5b5061019c60048036036101979190810190610ac9565b610624565b6040516101a99190610dca565b60405180910390f35b3480156101be57600080fd5b506101d960048036036101d49190810190610ac9565b61068b565b005b3480156101e757600080fd5b5061020260048036036101fd9190810190610ac9565b610a27565b60405161020f9190610d6b565b60405180910390f35b60015481565b60606002805480602002602001604051908101604052809291908181526020016000905b828210156102f95783829060005260206000209060040201604051806080016040529081600082015481526020016001820160009054906101000a900473ffffffffffffffffffffffffffffffffffffffff1673ffffffffffffffffffffffffffffffffffffffff1673ffffffffffffffffffffffffffffffffffffffff168152602001600282015481526020016003820160009054906101000a900460ff16151515158152505081526020019060010190610242565b50505050905090565b600080905060008090505b600080549050811015610397573373ffffffffffffffffffffffffffffffffffffffff166000828154811061033e57fe5b9060005260206000200160009054906101000a900473ffffffffffffffffffffffffffffffffffffffff1673ffffffffffffffffffffffffffffffffffffffff16141561038a57600191505b808060010191505061030d565b5060011515811515146103df576040517f08c379a00000000000000000000000000000000000000000000000000000000081526004016103d690610e05565b60405180910390fd5b600260405180608001604052808481526020018573ffffffffffffffffffffffffffffffffffffffff168152602001600081526020016000151581525090806001815401808255809150506001900390600052602060002090600402016000909190919091506000820151816000015560208201518160010160006101000a81548173ffffffffffffffffffffffffffffffffffffffff021916908373ffffffffffffffffffffffffffffffffffffffff1602179055506040820151816002015560608201518160030160006101000a81548160ff02191690831515021790555050508273ffffffffffffffffffffffffffffffffffffffff163373ffffffffffffffffffffffffffffffffffffffff167fcfdd9fb899a8656f5186323fd72fa54bf37463a60df530de8f0d34925d1d1f538460405161051f9190610e45565b60405180910390a3505050565b606060008054806020026020016040519081016040528092919081815260200182805480156105b057602002820191906000526020600020905b8160009054906101000a900473ffffffffffffffffffffffffffffffffffffffff1673ffffffffffffffffffffffffffffffffffffffff1681526020019060010190808311610566575b5050505050905090565b600281815481106105c757fe5b90600052602060002090600402016000915090508060000154908060010160009054906101000a900473ffffffffffffffffffffffffffffffffffffffff16908060020154908060030160009054906101000a900460ff16905084565b6000600360003373ffffffffffffffffffffffffffffffffffffffff1673ffffffffffffffffffffffffffffffffffffffff168152602001908152602001600020600083815260200190815260200160002060009054906101000a900460ff169050919050565b600080905060008090505b600080549050811015610720573373ffffffffffffffffffffffffffffffffffffffff16600082815481106106c757fe5b9060005260206000200160009054906101000a900473ffffffffffffffffffffffffffffffffffffffff1673ffffffffffffffffffffffffffffffffffffffff16141561071357600191505b8080600101915050610696565b506001151581151514610768576040517f08c379a000000000000000000000000000000000000000000000000000000000815260040161075f90610e05565b60405180910390fd5b600015156002838154811061077957fe5b906000526020600020906004020160030160009054906101000a900460ff161515146107da576040517f08c379a00000000000000000000000000000000000000000000000000000000081526004016107d190610de5565b60405180910390fd5b60001515600360003373ffffffffffffffffffffffffffffffffffffffff1673ffffffffffffffffffffffffffffffffffffffff168152602001908152602001600020600084815260200190815260200160002060009054906101000a900460ff1615151461087e576040517f08c379a000000000000000000000000000000000000000000000000000000000815260040161087590610e25565b60405180910390fd5b6001600360003373ffffffffffffffffffffffffffffffffffffffff1673ffffffffffffffffffffffffffffffffffffffff168152602001908152602001600020600084815260200190815260200160002060006101000a81548160ff021916908315150217905550600282815481106108f457fe5b9060005260206000209060040201600201600081548092919060010191905055506001546002838154811061092557fe5b90600052602060002090600402016002015410610a235760016002838154811061094b57fe5b906000526020600020906004020160030160006101000a81548160ff02191690831515021790555060006002838154811061098257fe5b906000526020600020906004020160010160009054906101000a900473ffffffffffffffffffffffffffffffffffffffff1690506000600284815481106109c557fe5b90600052602060002090600402016000015490508173ffffffffffffffffffffffffffffffffffffffff166108fc829081150290604051600060405180830381858888f19350505050158015610a1f573d6000803e3d6000fd5b5050505b5050565b60008181548110610a3457fe5b906000526020600020016000915054906101000a900473ffffffffffffffffffffffffffffffffffffffff1681565b600081359050610a7281610f82565b92915050565b600081359050610a8781610f99565b92915050565b60008060408385031215610aa057600080fd5b6000610aae85828601610a63565b9250506020610abf85828601610a78565b9150509250929050565b600060208284031215610adb57600080fd5b6000610ae984828501610a78565b91505092915050565b6000610afe8383610b40565b60208301905092915050565b6000610b168383610cf8565b60808301905092915050565b610b2b81610f3a565b82525050565b610b3a81610f3a565b82525050565b610b4981610f28565b82525050565b610b5881610f28565b82525050565b6000610b6982610ec5565b610b738185610ef5565b9350610b7e83610ea5565b8060005b83811015610baf578151610b968882610af2565b9750610ba183610edb565b925050600181019050610b82565b5085935050505092915050565b6000610bc782610ed0565b610bd18185610f06565b9350610bdc83610eb5565b8060005b83811015610c0d578151610bf48882610b0a565b9750610bff83610ee8565b925050600181019050610be0565b5085935050505092915050565b610c2381610f4c565b82525050565b610c3281610f4c565b82525050565b6000610c45601e83610f17565b91507f7472616e736665722068617320616c7265616479206265656e2073656e7400006000830152602082019050919050565b6000610c85600e83610f17565b91507f6f6e6c7920617070726f766572730000000000000000000000000000000000006000830152602082019050919050565b6000610cc5601d83610f17565b91507f63616e6e6f7420617070726f7665207472616e736665722074776963650000006000830152602082019050919050565b608082016000820151610d0e6000850182610d4d565b506020820151610d216020850182610b22565b506040820151610d346040850182610d4d565b506060820151610d476060850182610c1a565b50505050565b610d5681610f78565b82525050565b610d6581610f78565b82525050565b6000602082019050610d806000830184610b4f565b92915050565b60006020820190508181036000830152610da08184610b5e565b905092915050565b60006020820190508181036000830152610dc28184610bbc565b905092915050565b6000602082019050610ddf6000830184610c29565b92915050565b60006020820190508181036000830152610dfe81610c38565b9050919050565b60006020820190508181036000830152610e1e81610c78565b9050919050565b60006020820190508181036000830152610e3e81610cb8565b9050919050565b6000602082019050610e5a6000830184610d5c565b92915050565b6000608082019050610e756000830187610d5c565b610e826020830186610b31565b610e8f6040830185610d5c565b610e9c6060830184610c29565b95945050505050565b6000819050602082019050919050565b6000819050602082019050919050565b600081519050919050565b600081519050919050565b6000602082019050919050565b6000602082019050919050565b600082825260208201905092915050565b600082825260208201905092915050565b600082825260208201905092915050565b6000610f3382610f58565b9050919050565b6000610f4582610f58565b9050919050565b60008115159050919050565b600073ffffffffffffffffffffffffffffffffffffffff82169050919050565b6000819050919050565b610f8b81610f3a565b8114610f9657600080fd5b50565b610fa281610f78565b8114610fad57600080fd5b5056fea2646970667358221220751315a64a0b7588b46a10c0064ca64ea625479d8af1e0f4aff0c75d35ebac9964736f6c63430006000033",
  "source": "// SPDX-License-Identifier: GPL-3.0\r\npragma solidity ^0.6.0;\r\npragma experimental ABIEncoderV2;\r\n\r\ncontract Wallet {\r\n\r\n    address[] public approvers;\r\n    uint public quorum;\r\n\r\n    struct Transfer {\r\n        //uint id;\r\n        uint amount;\r\n        address payable to;\r\n        uint approvals;\r\n        bool sent;\r\n    }\r\n\r\n    //mapping(uint => Transfer) public transfers;\r\n    Transfer[] public transfers;\r\n    mapping(address => mapping(uint => bool)) approvals;\r\n\r\n    event TransferCreated(\r\n        address indexed _from,\r\n        address indexed _to,\r\n        uint _amount\r\n    );\r\n\r\n    constructor(address[] memory _approvers, uint _quorum) public {\r\n        approvers = _approvers;\r\n        quorum = _quorum;\r\n    }\r\n\r\n    function getApprovals(uint _id) external view returns(bool) {\r\n        return approvals[msg.sender][_id];\r\n    }\r\n\r\n    function getApprovers() external view returns(address[] memory) {\r\n        return approvers;\r\n    }\r\n\r\n    function createTransfers(address payable _to, uint _amount) onlyApprover() external {\r\n        transfers.push(Transfer(\r\n            //nextId,\r\n            _amount,\r\n            _to,\r\n            0,\r\n            false\r\n        ));\r\n\r\n        emit TransferCreated(msg.sender, _to, _amount);\r\n\r\n        //nextId++;\r\n    }\r\n\r\n    function getTransfers() external view returns(Transfer[] memory) {\r\n        return transfers;\r\n    }\r\n\r\n    function approveTransfer(uint _index) external onlyApprover() {\r\n        require(transfers[_index].sent == false, \"transfer has already been sent\");\r\n        require(approvals[msg.sender][_index] == false, \"cannot approve transfer twice\");\r\n\r\n        approvals[msg.sender][_index] = true;\r\n        transfers[_index].approvals++;\r\n\r\n        if (transfers[_index].approvals >= quorum) {\r\n            transfers[_index].sent = true;\r\n            address payable to = transfers[_index].to;\r\n            uint amount = transfers[_index].amount;\r\n\r\n            to.transfer(amount);\r\n        }\r\n    }\r\n\r\n    modifier onlyApprover() {\r\n        bool allowed = false;\r\n        for (uint i = 0; i < approvers.length; i++) {\r\n            if (approvers[i] == msg.sender) {\r\n                allowed = true;\r\n            }\r\n        }\r\n\r\n        require(allowed == true, \"only approvers\");\r\n        _;\r\n    }\r\n\r\n    receive() external payable {\r\n        // transfer to address on contract\r\n    }\r\n}",
  "sourcePath": "C:\\Development\\Products\\Blockchain\\5MultiSig\\contracts\\Wallet.sol",
  "compiler": {
    "name": "solc",
    "version": "0.6.0+commit.26b70077.Emscripten.clang"
  },
  "schemaVersion": "3.4.10",
  "updatedAt": "2022-10-19T20:51:03.883Z",
  "networkType": "ethereum",
  "devdoc": {
    "methods": {}
  },
  "userdoc": {
    "methods": {}
  }
}