{
  "contractName": "Wallet",
  "abi": [
    {
      "inputs": [
        {
          "internalType": "address[]",
          "name": "_approvers",
          "type": "address[]"
        },
        {
          "internalType": "uint256",
          "name": "_quorum",
          "type": "uint256"
        }
      ],
      "stateMutability": "nonpayable",
      "type": "constructor"
    },
    {
      "inputs": [
        {
          "internalType": "uint256",
          "name": "",
          "type": "uint256"
        }
      ],
      "name": "approvers",
      "outputs": [
        {
          "internalType": "address",
          "name": "",
          "type": "address"
        }
      ],
      "stateMutability": "view",
      "type": "function",
      "constant": true
    },
    {
      "inputs": [],
      "name": "quorum",
      "outputs": [
        {
          "internalType": "uint256",
          "name": "",
          "type": "uint256"
        }
      ],
      "stateMutability": "view",
      "type": "function",
      "constant": true
    },
    {
      "inputs": [
        {
          "internalType": "uint256",
          "name": "",
          "type": "uint256"
        }
      ],
      "name": "transfers",
      "outputs": [
        {
          "internalType": "uint256",
          "name": "amount",
          "type": "uint256"
        },
        {
          "internalType": "address payable",
          "name": "to",
          "type": "address"
        },
        {
          "internalType": "uint256",
          "name": "approvals",
          "type": "uint256"
        },
        {
          "internalType": "bool",
          "name": "sent",
          "type": "bool"
        }
      ],
      "stateMutability": "view",
      "type": "function",
      "constant": true
    },
    {
      "stateMutability": "payable",
      "type": "receive",
      "payable": true
    },
    {
      "inputs": [],
      "name": "getApprovers",
      "outputs": [
        {
          "internalType": "address[]",
          "name": "",
          "type": "address[]"
        }
      ],
      "stateMutability": "view",
      "type": "function",
      "constant": true
    },
    {
      "inputs": [
        {
          "internalType": "address payable",
          "name": "_to",
          "type": "address"
        },
        {
          "internalType": "uint256",
          "name": "_amount",
          "type": "uint256"
        }
      ],
      "name": "createTransfers",
      "outputs": [],
      "stateMutability": "nonpayable",
      "type": "function"
    },
    {
      "inputs": [],
      "name": "getTransfers",
      "outputs": [
        {
          "components": [
            {
              "internalType": "uint256",
              "name": "amount",
              "type": "uint256"
            },
            {
              "internalType": "address payable",
              "name": "to",
              "type": "address"
            },
            {
              "internalType": "uint256",
              "name": "approvals",
              "type": "uint256"
            },
            {
              "internalType": "bool",
              "name": "sent",
              "type": "bool"
            }
          ],
          "internalType": "struct Wallet.Transfer[]",
          "name": "",
          "type": "tuple[]"
        }
      ],
      "stateMutability": "view",
      "type": "function",
      "constant": true
    },
    {
      "inputs": [
        {
          "internalType": "uint256",
          "name": "_index",
          "type": "uint256"
        }
      ],
      "name": "approveTransfer",
      "outputs": [],
      "stateMutability": "nonpayable",
      "type": "function"
    }
  ],
  "bytecode": "0x60806040523480156200001157600080fd5b50604051620011d9380380620011d98339818101604052620000379190810190620001ef565b81600090805190602001906200004f9291906200005f565b5080600181905550505062000312565b828054828255906000526020600020908101928215620000db579160200282015b82811115620000da5782518260006101000a81548173ffffffffffffffffffffffffffffffffffffffff021916908373ffffffffffffffffffffffffffffffffffffffff1602179055509160200191906001019062000080565b5b509050620000ea9190620000ee565b5090565b6200013191905b808211156200012d57600081816101000a81549073ffffffffffffffffffffffffffffffffffffffff021916905550600101620000f5565b5090565b90565b6000815190506200014581620002de565b92915050565b600082601f8301126200015d57600080fd5b8151620001746200016e8262000277565b62000249565b915081818352602084019350602081019050838560208402820111156200019a57600080fd5b60005b83811015620001ce5781620001b3888262000134565b8452602084019350602083019250506001810190506200019d565b5050505092915050565b600081519050620001e981620002f8565b92915050565b600080604083850312156200020357600080fd5b600083015167ffffffffffffffff8111156200021e57600080fd5b6200022c858286016200014b565b92505060206200023f85828601620001d8565b9150509250929050565b6000604051905081810181811067ffffffffffffffff821117156200026d57600080fd5b8060405250919050565b600067ffffffffffffffff8211156200028f57600080fd5b602082029050602081019050919050565b6000620002ad82620002b4565b9050919050565b600073ffffffffffffffffffffffffffffffffffffffff82169050919050565b6000819050919050565b620002e981620002a0565b8114620002f557600080fd5b50565b6200030381620002d4565b81146200030f57600080fd5b50565b610eb780620003226000396000f3fe6080604052600436106100745760003560e01c80636cb3e8ef1161004e5780636cb3e8ef146100ff5780639377d7111461012a578063cacca4a01461016a578063d3650fb8146101935761007b565b80631703a018146100805780632f65142c146100ab57806346f26619146100d65761007b565b3661007b57005b600080fd5b34801561008c57600080fd5b506100956101d0565b6040516100a29190610d16565b60405180910390f35b3480156100b757600080fd5b506100c06101d6565b6040516100cd9190610c94565b60405180910390f35b3480156100e257600080fd5b506100fd60048036036100f89190810190610979565b6102ba565b005b34801561010b57600080fd5b5061011461047f565b6040516101219190610c72565b60405180910390f35b34801561013657600080fd5b50610151600480360361014c91908101906109b5565b61050d565b6040516101619493929190610d31565b60405180910390f35b34801561017657600080fd5b50610191600480360361018c91908101906109b5565b610577565b005b34801561019f57600080fd5b506101ba60048036036101b591908101906109b5565b610913565b6040516101c79190610c57565b60405180910390f35b60015481565b60606002805480602002602001604051908101604052809291908181526020016000905b828210156102b15783829060005260206000209060040201604051806080016040529081600082015481526020016001820160009054906101000a900473ffffffffffffffffffffffffffffffffffffffff1673ffffffffffffffffffffffffffffffffffffffff1673ffffffffffffffffffffffffffffffffffffffff168152602001600282015481526020016003820160009054906101000a900460ff161515151581525050815260200190600101906101fa565b50505050905090565b600080905060008090505b60008054905081101561034f573373ffffffffffffffffffffffffffffffffffffffff16600082815481106102f657fe5b9060005260206000200160009054906101000a900473ffffffffffffffffffffffffffffffffffffffff1673ffffffffffffffffffffffffffffffffffffffff16141561034257600191505b80806001019150506102c5565b506001151581151514610397576040517f08c379a000000000000000000000000000000000000000000000000000000000815260040161038e90610cd6565b60405180910390fd5b600260405180608001604052808481526020018573ffffffffffffffffffffffffffffffffffffffff168152602001600081526020016000151581525090806001815401808255809150506001900390600052602060002090600402016000909190919091506000820151816000015560208201518160010160006101000a81548173ffffffffffffffffffffffffffffffffffffffff021916908373ffffffffffffffffffffffffffffffffffffffff1602179055506040820151816002015560608201518160030160006101000a81548160ff0219169083151502179055505050505050565b6060600080548060200260200160405190810160405280929190818152602001828054801561050357602002820191906000526020600020905b8160009054906101000a900473ffffffffffffffffffffffffffffffffffffffff1673ffffffffffffffffffffffffffffffffffffffff16815260200190600101908083116104b9575b5050505050905090565b6002818154811061051a57fe5b90600052602060002090600402016000915090508060000154908060010160009054906101000a900473ffffffffffffffffffffffffffffffffffffffff16908060020154908060030160009054906101000a900460ff16905084565b600080905060008090505b60008054905081101561060c573373ffffffffffffffffffffffffffffffffffffffff16600082815481106105b357fe5b9060005260206000200160009054906101000a900473ffffffffffffffffffffffffffffffffffffffff1673ffffffffffffffffffffffffffffffffffffffff1614156105ff57600191505b8080600101915050610582565b506001151581151514610654576040517f08c379a000000000000000000000000000000000000000000000000000000000815260040161064b90610cd6565b60405180910390fd5b600015156002838154811061066557fe5b906000526020600020906004020160030160009054906101000a900460ff161515146106c6576040517f08c379a00000000000000000000000000000000000000000000000000000000081526004016106bd90610cb6565b60405180910390fd5b60001515600360003373ffffffffffffffffffffffffffffffffffffffff1673ffffffffffffffffffffffffffffffffffffffff168152602001908152602001600020600084815260200190815260200160002060009054906101000a900460ff1615151461076a576040517f08c379a000000000000000000000000000000000000000000000000000000000815260040161076190610cf6565b60405180910390fd5b6001600360003373ffffffffffffffffffffffffffffffffffffffff1673ffffffffffffffffffffffffffffffffffffffff168152602001908152602001600020600084815260200190815260200160002060006101000a81548160ff021916908315150217905550600282815481106107e057fe5b9060005260206000209060040201600201600081548092919060010191905055506001546002838154811061081157fe5b9060005260206000209060040201600201541061090f5760016002838154811061083757fe5b906000526020600020906004020160030160006101000a81548160ff02191690831515021790555060006002838154811061086e57fe5b906000526020600020906004020160010160009054906101000a900473ffffffffffffffffffffffffffffffffffffffff1690506000600284815481106108b157fe5b90600052602060002090600402016000015490508173ffffffffffffffffffffffffffffffffffffffff166108fc829081150290604051600060405180830381858888f1935050505015801561090b573d6000803e3d6000fd5b5050505b5050565b6000818154811061092057fe5b906000526020600020016000915054906101000a900473ffffffffffffffffffffffffffffffffffffffff1681565b60008135905061095e81610e53565b92915050565b60008135905061097381610e6a565b92915050565b6000806040838503121561098c57600080fd5b600061099a8582860161094f565b92505060206109ab85828601610964565b9150509250929050565b6000602082840312156109c757600080fd5b60006109d584828501610964565b91505092915050565b60006109ea8383610a2c565b60208301905092915050565b6000610a028383610be4565b60808301905092915050565b610a1781610e0b565b82525050565b610a2681610e0b565b82525050565b610a3581610df9565b82525050565b610a4481610df9565b82525050565b6000610a5582610d96565b610a5f8185610dc6565b9350610a6a83610d76565b8060005b83811015610a9b578151610a8288826109de565b9750610a8d83610dac565b925050600181019050610a6e565b5085935050505092915050565b6000610ab382610da1565b610abd8185610dd7565b9350610ac883610d86565b8060005b83811015610af9578151610ae088826109f6565b9750610aeb83610db9565b925050600181019050610acc565b5085935050505092915050565b610b0f81610e1d565b82525050565b610b1e81610e1d565b82525050565b6000610b31601e83610de8565b91507f7472616e736665722068617320616c7265616479206265656e2073656e7400006000830152602082019050919050565b6000610b71600e83610de8565b91507f6f6e6c7920617070726f766572730000000000000000000000000000000000006000830152602082019050919050565b6000610bb1601d83610de8565b91507f63616e6e6f7420617070726f7665207472616e736665722074776963650000006000830152602082019050919050565b608082016000820151610bfa6000850182610c39565b506020820151610c0d6020850182610a0e565b506040820151610c206040850182610c39565b506060820151610c336060850182610b06565b50505050565b610c4281610e49565b82525050565b610c5181610e49565b82525050565b6000602082019050610c6c6000830184610a3b565b92915050565b60006020820190508181036000830152610c8c8184610a4a565b905092915050565b60006020820190508181036000830152610cae8184610aa8565b905092915050565b60006020820190508181036000830152610ccf81610b24565b9050919050565b60006020820190508181036000830152610cef81610b64565b9050919050565b60006020820190508181036000830152610d0f81610ba4565b9050919050565b6000602082019050610d2b6000830184610c48565b92915050565b6000608082019050610d466000830187610c48565b610d536020830186610a1d565b610d606040830185610c48565b610d6d6060830184610b15565b95945050505050565b6000819050602082019050919050565b6000819050602082019050919050565b600081519050919050565b600081519050919050565b6000602082019050919050565b6000602082019050919050565b600082825260208201905092915050565b600082825260208201905092915050565b600082825260208201905092915050565b6000610e0482610e29565b9050919050565b6000610e1682610e29565b9050919050565b60008115159050919050565b600073ffffffffffffffffffffffffffffffffffffffff82169050919050565b6000819050919050565b610e5c81610e0b565b8114610e6757600080fd5b50565b610e7381610e49565b8114610e7e57600080fd5b5056fea2646970667358221220ad42db2564fe877b01a5edd4d243c9cef1dffcdbc92b1135f43c798459fa3afa64736f6c63430006000033",
  "source": "// SPDX-License-Identifier: GPL-3.0\r\npragma solidity ^0.6.0;\r\npragma experimental ABIEncoderV2;\r\n\r\ncontract Wallet {\r\n\r\n    address[] public approvers;\r\n    uint public quorum;\r\n\r\n    struct Transfer {\r\n        //uint id;\r\n        uint amount;\r\n        address payable to;\r\n        uint approvals;\r\n        bool sent;\r\n    }\r\n\r\n    //mapping(uint => Transfer) public transfers;\r\n    Transfer[] public transfers;\r\n    mapping(address => mapping(uint => bool)) approvals;\r\n\r\n    constructor(address[] memory _approvers, uint _quorum) public {\r\n        approvers = _approvers;\r\n        quorum = _quorum;\r\n    }\r\n\r\n    function getApprovers() external view returns(address[] memory) {\r\n        return approvers;\r\n    }\r\n\r\n    function createTransfers(address payable _to, uint _amount) onlyApprover() external {\r\n        transfers.push(Transfer(\r\n            //nextId,\r\n            _amount,\r\n            _to,\r\n            0,\r\n            false\r\n        ));\r\n\r\n        //nextId++;\r\n    }\r\n\r\n    function getTransfers() external view returns(Transfer[] memory) {\r\n        return transfers;\r\n    }\r\n\r\n    function approveTransfer(uint _index) external onlyApprover() {\r\n        require(transfers[_index].sent == false, \"transfer has already been sent\");\r\n        require(approvals[msg.sender][_index] == false, \"cannot approve transfer twice\");\r\n\r\n        approvals[msg.sender][_index] = true;\r\n        transfers[_index].approvals++;\r\n\r\n        if (transfers[_index].approvals >= quorum) {\r\n            transfers[_index].sent = true;\r\n            address payable to = transfers[_index].to;\r\n            uint amount = transfers[_index].amount;\r\n\r\n            to.transfer(amount);\r\n        }\r\n    }\r\n\r\n    modifier onlyApprover() {\r\n        bool allowed = false;\r\n        for (uint i = 0; i < approvers.length; i++) {\r\n            if (approvers[i] == msg.sender) {\r\n                allowed = true;\r\n            }\r\n        }\r\n\r\n        require(allowed == true, \"only approvers\");\r\n        _;\r\n    }\r\n\r\n    receive() external payable {\r\n        // transfer to address on contract\r\n    }\r\n}",
  "sourcePath": "C:\\Development\\Products\\Blockchain\\5MultiSig\\contracts\\Wallet.sol",
  "compiler": {
    "name": "solc",
    "version": "0.6.0+commit.26b70077.Emscripten.clang"
  },
  "schemaVersion": "3.4.10",
  "updatedAt": "2022-10-17T21:00:06.247Z",
  "networkType": "ethereum",
  "devdoc": {
    "methods": {}
  },
  "userdoc": {
    "methods": {}
  }
}